:020000040800F2
:100000000040022045C600081129000819290008EF
:1000100000000000000000000000000000000000E0
:10002000000000000000000000000000212900087E
:1000300000000000000000002B29000835290008FE
:1000400095C6000895C6000895C6000895C6000824
:1000500095C6000895C6000895C6000895C6000814
:100060004929000895C6000895C6000895C60008ED
:1000700095C6000895C6000895C6000895C60008F4
:1000800095C6000895C6000895C6000895C60008E4
:1000900095C6000895C6000895C6000895C60008D4
:1000A00095C6000895C6000895C6000895C60008C4
:0C00B00095C6000895C6000895C600081B
:1000BC0010B5064C2378002B07D1054B002B02D032
:1000CC00044800E000BF0123237010BD6001002034
:1000DC000000000060E90008044B10B5002B03D0B1
:1000EC000349044800E000BF10BDC04600000000FA
:1000FC006401002060E90008002243088B4274D39D
:10010C0003098B425FD3030A8B4244D3030B8B420C
:10011C0028D3030C8B420DD3FF22090212BA030C15
:10012C008B4202D31212090265D0030B8B4219D3F6
:10013C0000E0090AC30B8B4201D3CB03C01A524116
:10014C00830B8B4201D38B03C01A5241430B8B425E
:10015C0001D34B03C01A5241030B8B4201D30B0347
:10016C00C01A5241C30A8B4201D3CB02C01A52416E
:10017C00830A8B4201D38B02C01A5241430A8B4231
:10018C0001D34B02C01A5241030A8B4201D30B021A
:10019C00C01A5241CDD2C3098B4201D3CB01C01A34
:1001AC00524183098B4201D38B01C01A524143093E
:1001BC008B4201D34B01C01A524103098B4201D32C
:1001CC000B01C01A5241C3088B4201D3CB00C01A99
:1001DC00524183088B4201D38B00C01A5241430811
:1001EC008B4201D34B00C01A5241411A00D2014636
:1001FC00524110467047FFE701B5002000F0F0F8BF
:10020C0002BDC0460029F7D076E7704703460B4382
:10021C007FD4002243088B4274D303098B425FD3F3
:10022C00030A8B4244D3030B8B4228D3030C8B421F
:10023C000DD3FF22090212BA030C8B4202D3121205
:10024C00090265D0030B8B4219D300E0090AC30BDA
:10025C008B4201D3CB03C01A5241830B8B4201D387
:10026C008B03C01A5241430B8B4201D34B03C01A70
:10027C005241030B8B4201D30B03C01A5241C30AE8
:10028C008B4201D3CB02C01A5241830A8B4201D359
:10029C008B02C01A5241430A8B4201D34B02C01A43
:1002AC005241030A8B4201D30B02C01A5241CDD2E8
:1002BC00C3098B4201D3CB01C01A524183098B4233
:1002CC0001D38B01C01A524143098B4201D34B011C
:1002DC00C01A524103098B4201D30B01C01A52417F
:1002EC00C3088B4201D3CB00C01A524183088B4206
:1002FC0001D38B00C01A524143088B4201D34B00EF
:10030C00C01A5241411A00D2014652411046704760
:10031C005DE0CA0F00D04942031000D34042534065
:10032C0000229C4603098B422DD3030A8B4212D325
:10033C00FC22890112BA030A8B420CD38901921157
:10034C008B4208D3890192118B4204D389013AD094
:10035C00921100E08909C3098B4201D3CB01C01A69
:10036C00524183098B4201D38B01C01A524143097C
:10037C008B4201D34B01C01A524103098B4201D36A
:10038C000B01C01A5241C3088B4201D3CB00C01AD7
:10039C00524183088B4201D38B00C01A5241D9D2EF
:1003AC0043088B4201D34B00C01A5241411A00D270
:1003BC000146634652415B10104601D34042002B6C
:1003CC0000D54942704763465B1000D3404201B5EB
:1003DC00002000F005F802BD0029F8D016E77047A0
:1003EC007047C046F0B5CE469946030C9C461304A4
:1003FC0047461B0C1D000E0061460404240C80B5FE
:10040C000700100C4B436543414360432C0CC01850
:10041C0024188C46A34203D980235B029846C4441B
:10042C00494679435643230C2D042D0C89196344FA
:10043C0024046019C918C0BCB946B046F0BDC0460A
:10044C00F0B55746DE464E464546E0B51F000B0359
:10045C001B0B16009A46CA0F4B000400934687B03C
:10046C005B0D00D1D5E0BB4A934200D1F8E0514678
:10047C00420FC9000A43802109041143C20091466E
:10048C00B54A8A469D180023984602933C037B008C
:10049C00FA0F3000240B5B0D009200D196E0AD4AB0
:1004AC00934231D0720FE40022438024240414437D
:1004BC00A94AF000944663445B195A1C01924246C7
:1004CC0000260A2A42DC5A4600994A409346424684
:1004DC00022A32DC013A012A00D949E1022E00D16C
:1004EC00CAE0012E3DD100230024002210005A4600
:1004FC001B052343D2071343190007B0F0BCBB46BE
:10050C00B246A946A046F0BD924B2643EB18002EEE
:10051C0000D1BBE00322414611435A46884600995C
:10052C004A40802109018C462900614401914146D1
:10053C000A2900DD33E29346032642460127974001
:10054C00A6213A00C9000A400F4231D0029E022E69
:10055C0000D135E2032E00D1D2E154464846012E9B
:10056C00C1D0019A7D4B94466344002B00DCC0E063
:10057C00420709D00F220240042A05D0021D8242F4
:10058C008041404224181000E20106D5744B019AB8
:10059C001C4080239446DB006344724A93426BDC1C
:1005AC006207C00864025B050243240B5B0D9DE7E8
:1005BC00902189000F4263D188223A4200D1D7E0C2
:1005CC00009BA2469B4681460296BFE7230033431D
:1005DC0000D17FE0002C00D1ADE1200000F0FEFD49
:1005EC00020003000B3A1D201900821A3000083952
:1005FC00D0408C400443300088405B4AEB1A944650
:10060C0063445A1C0192424600260A2A00DC5AE72F
:10061C009CE753460343994654D05346002B00D1D4
:10062C0077E1504600F0DAFD0B235B429C4602005A
:10063C00844411005046083988401D23804660468A
:10064C001B1A2000D8400300404603439A4623005F
:10065C008B4099460023444D9846AD1A029315E7FA
:10066C0052460243914626D100221D000223924697
:10067C0008329046029309E700240022354B35E7F7
:10068C00002380249B462403324B2FE70222414651
:10069C0011438022120194462A006244884601923A
:1006AC000A2900DD52E75A460020009904004A400E
:1006BC00934602260BE70C221D000323814690462D
:1006CC000293E3E600239A4604339846033B002545
:1006DC000293DBE6424601331A432B0090465A1C28
:1006EC00019242460024002001260A2A00DCEAE698
:1006FC002CE70122D21A382A00DDF4E61F2A00DC8E
:10070C002AE11F214942CB1A2100D9400B00202A93
:10071C0005D0164A019D94466544AC402043421EC8
:10072C0090411843072319000024014003420CD0C8
:10073C000F230340042B00D140E1031D8342A4414D
:10074C001800644261076402240BC20800230A43A8
:10075C00CCE6C046FF07000001FCFFFFFF030000D2
:10076C00FFFFFFFEFE0700000DFCFFFF3E04000034
:10077C0049464A460904090C0D00160C020C0004EB
:10078C00000C4543AC4605007543A84615000F0008
:10079C007543009202952A00009D6F4365462D0C0F
:1007AC00A94647444F44B84505D91500802252024A
:1007BC009046454402953D0C039565462D043F0437
:1007CC002D0CAC463D0065440495250C2404240CEA
:1007DC00AC4625007543A84665460F006943414465
:1007EC0089466743390C49446E43884503D98022B6
:1007FC005202904646440D0CA846350045440595DA
:10080C00039D3F04A8463F0C0904C919884445467A
:10081C00039555462E04360C2F0C35004543784372
:10082C0081463800A8462D0CAA46009A50437243C4
:10083C004A445244914503D980256D02A946484447
:10084C00150CA94645462D042D0CA84665467D433E
:10085C00120448449044A9463200654662436E43F4
:10086C007C43170C3619BF19BC4203D9802464028F
:10087C00A446E144029C039EA446059D66448E4218
:10088C008941AC4612043C04120CA2186244494241
:10089C0054184644A4464645A44182466442A046A8
:1008AC00AA4292418C458941E244D0444942524289
:1008BC000A43A045A44182458941644249420C4304
:1008CC0041463F0CD2191219CC0D04997002084301
:1008DC00411E884141464A44F60D520230434902BA
:1008EC0014430843D20135D5012243080240134377
:1008FC00E0071843640834E6009BA2469B468146F9
:10090C008024534624031C4324034A462E4B240BB9
:10091C00ECE500F063FC15239C468444020063461E
:10092C0020321C2B00DC84E6002399462300083877
:10093C0083409A468EE600F051FC0200030015320B
:10094C0020331C2A00DC4EE602003400083A00205A
:10095C00944052E6019304E61C4B21009C46030094
:10096C00019DD3406544A94019430300AB40581E78
:10097C00834119430800D4404B0709D00F230B4087
:10098C00042B05D00B1D8B428041404224181800CB
:10099C00230200D4D6E6012300240022A6E50F2969
:1009AC00AAD1802352461B031A42A9D01C42A7D1BC
:1009BC001C43009B02009B46034B97E50024C1E6B9
:1009CC000024014B220091E5FF0700001E040000EB
:1009DC00F0B54E464546DE465746E0B585B000902C
:1009EC0001910C034F00CE0F610A009CB046640FBE
:1009FC000C4300997F0DC80011001A001B039C4684
:100A0C000091019251004B0D9946019B009DD90F0D
:100A1C0063466A0F5B0A1343EA0094469346C14A45
:100A2C0003900293914500D1CDE0012569404D46DC
:100A3C007D1BAA468E4200D180E0002D00DC35E300
:100A4C004946002900D1DFE0974200D194E152469B
:100A5C000125382A19DC8022029B120413430293CD
:100A6C0052461F2A00DDE3E1534620226146029DD7
:100A7C00D21A9540D9400D43614691400A00511E4F
:100A8C008A411543029ADA40A41A451BA8428041B8
:100A9C004042241A230200D43DE16402640A002C73
:100AAC0000D147E1200000F099FB0300083B202116
:100ABC002800CA1AD0409C4002009D4022439F420D
:100ACC0000DD77E1D81B0130091A2C008D40C440A1
:100ADC006B1E9D411300C2408B4025430027140020
:100AEC001D436B0709D00F232B40042B05D02B1D66
:100AFC00AB42AD416D4264191D00230200D440E1AC
:100B0C00884A0137974200D101E1012643468649C4
:100B1C00ED0821404A072A437C054D022D0B640D3C
:100B2C001E4024052C43F60734431000210005B069
:100B3C00F0BCBB46B246A946A046F0BD002D00DC79
:100B4C00D0E24946002900D0D4E06146029B19430B
:100B5C0000D12BE1691E012D00D1D9E1954200D1C4
:100B6C000AE10125382917DC8A4653461F2B00DD84
:100B7C00E7E12022D21A029B614693401D005346A6
:100B8C00D940634693401A000D43511E8A41534687
:100B9C001543029ADA40A4182D1885428041404230
:100BAC002418230200D4B6E05E4B01379F4200D1DB
:100BBC00ADE001215C4B6A081C4029400A43E50763
:100BCC00154364088DE7594A029B92466246BA4423
:100BDC001A432CD08E422ED05246002A60D0002FC1
:100BEC0000D1DBE063460E00029CD808620702438A
:100BFC00E4081300234300D154E280252D03254340
:100C0C002D03484C2D0B8CE76146029B194300D1F8
:100C1C00CCE029000139012D00D188E1954200D1A9
:100C2C00AAE00125382900DD2FE78A4618E70122C2
:100C3C0051408E42D0D15346002B00D1BEE0002F44
:100C4C0000D038E1CA462200024300D1E2E153460B
:100C5C00591E012B00D10DE2324A924500D1D2E14E
:100C6C000127382913DC1F2900DDEEE12022029B2D
:100C7C00521A250007009A46CC4090409540CF4030
:100C8C00A244421E904153462F43074302933D001A
:100C9C00654465459241029B52424F46D41880E709
:100CAC00234A7D1C154200D0AAE062462500029B17
:100CBC0005431A43002F00D0F5E0002D00D16BE165
:100CCC00002A00D152E16346C51A029BE21AA842DF
:100CDC009B415B42D31A1A0200D4D5E163461D1A1C
:100CEC00AC4592410126029B52421C1B8846A41A19
:100CFC000E40F6E697423FD052460125382A00DDD9
:100D0C004AE78022029B1204134302932DE73C0016
:100D1C000025002205E707232B40002B00D0E2E63C
:100D2C006BE0C046FF070000FFFF7FFF01F8FFFFED
:100D3C00FE070000280000F051FA030018331F2BA7
:100D4C0000DCB4E62A00083882409F4200DDB9E09E
:100D5C00DB1B581C1F2800DCA0E115001F3BDD40ED
:100D6C00202805D040231B1A9A40531E9A41154344
:100D7C00072300272B40D0E7C00862070243E40892
:100D8C0037E7EA0863071A43D34BE4089F4200D1C4
:100D9C002FE72403250B7C05640DC2E6CA4622000E
:100DAC00024358D163460E00029C0393039B5746A3
:100DBC00DA08E7E7C94CFF1A144092E6C84D7A1CD2
:100DCC002A4200D084E022000243002F00D0EFE042
:100DDC00002A00D1E5E0624602990A4300D1C5E041
:100DEC006346C5188C4685428041644440422418B1
:100DFC00230202D5B94B01371C40BA460395D5E7FF
:100E0C006246851AA842924152429146029BE31ACD
:100E1C001A004B46D21A130091461A026CD44A4659
:100E2C004C462A4300D03AE600260024002578E6FA
:100E3C00029953460D00203AD540202B06D0402273
:100E4C00D21A0B00934062461A4393465B465A1ED5
:100E5C0093411D4319E653465A1E012B00D1C6E09F
:100E6C009D4EB24500D1BDE688460E000125382ABC
:100E7C0010DC1F2A7FDC20212500891A07008840FE
:100E8C008D40D740D440411E8841029B3D431B1BE3
:100E9C00054302936246551BAC459241029B52425C
:100EAC004F469C1AF6E5002D00D0B7E0002A00D181
:100EBC00F0E001260E4063460298D90842070A4327
:100ECC00C40896E6854CFF1A14406207E40860E7F4
:100EDC0081498A4200D1C9E06346C11881428041F0
:100EEC00029B4042E3181B18DD075C0807234908E6
:100EFC000D4317002B4010E763461D1AAC45924179
:100F0C000126029B52421C1B8846A41A0E40C6E5C1
:100F1C006346C518029B854280419C46404264440E
:100F2C0024180127230200D4F5E6022741E6634684
:100F3C00C51AA8428041029B4042E41A0127241A98
:100F4C00A8E5029D52462B00203AD3401900534687
:100F5C00202B06D04022D21A2B00934062461A4313
:100F6C0093465D466B1E9D410D4315E66207C00816
:100F7C000243E4080DE7110027002039CF40202A56
:100F8C0005D040218A1A9440250005430395039D02
:100F9C006A1E95413D437DE7002A00D144E70126B6
:100FAC000E406346D908029B5A070A43DC08F0E658
:100FBC00002A28D06246029FC0083A4300D1DCE6E2
:100FCC00620710438022E4081203144209D0FD0882
:100FDC00154206D1634601262C00D8087B0718431E
:100FEC000E40420FC000C0085207024301E66346A0
:100FFC001D1AAC459241029B52421C1B0E008846A6
:10100C000127A41A46E56346D908029B5A070A43EE
:10101C00DC08EEE56346029C0393C7E6C008002A91
:10102C0000D1AAE6620710438022E408120314429E
:10103C00D7D0029FFD081542D3D163460126D808AC
:10104C007B072C0018430E40CBE70A002700203A00
:10105C00D740202905D04022521A94402500054340
:10106C000395039D6A1E95412F4310E6140000253D
:10107C00002256E5029B60449946604592414C44DF
:10108C0052420500A4184CE71A001C002A4300D059
:10109C00B3E6C9E6802400262403AEE52021002512
:1010AC00091A17E5002200250B4C3AE5002D00D15A
:1010BC00F6E54B46DA1B9246002F00D16FE6382A34
:1010CC0005DC80263604344388460E00D1E688467B
:1010DC000E000125DEE6C046FF070000FFFF7FFF84
:1010EC00FE070000002D00D168E64B46D91B002FEF
:1010FC0001D18A46A7E50127382900DDC7E5802202
:10110C0012041443AFE5C0460B00020070B5164D37
:10111C000C0382B04900002000920193240B490D6E
:10112C00DE0FA94204DD1148814203DD104BF0189B
:10113C0002B070BD8020400320430E4C641A1F2C5B
:10114C0008DD0D4B5B1AD84003005842002EEFD13E
:10115C001800EDE7094B009A9C46030061448B4054
:10116C00E2401343F1E7C046FE0300001D040000FB
:10117C00FFFFFF7F3304000013040000EDFBFFFFB3
:10118C0070B5002816D0C317C5185D40C40F2800D1
:10119C0000F024F8104B1B1A5B055B0D0A2814DCBD
:1011AC0002002E00153296400B22121AD5402D0348
:1011BC002D0B03E000240023002500261B052B43E8
:1011CC00E40723433000190070BD0B3885402D0314
:1011DC0000262D0BF2E7C0461E0400001C21012343
:1011EC001B04984201D3000C10391B0A984201D3FE
:1011FC00000A08391B09984201D30009043902A2DC
:10120C00105C40187047C046040302020101010142
:10121C0000000000000000000023C25C0133002A23
:10122C00FBD1581E7047000003B4714649084000BA
:10123C004900095E49008E4403BC70478446100087
:10124C0062468C461900634600E0C0461FB500F0AC
:10125C0069FF002801D40021C8421FBD10B500F061
:10126C00A9FE4042013010BD10B500F05BFF002814
:10127C0001DB002010BD012010BDC04610B500F0F0
:10128C0051FF002801DD002010BD012010BDC0461B
:10129C0010B500F0D3FE002801DC002010BD0120A9
:1012AC0010BDC04610B500F0C9FE002801DA0020C0
:1012BC0010BD012010BDC046F0B557464E46454600
:1012CC00DE46E0B583B0009001910C034F00CE0FC9
:1012DC00610A009C1D03640F0C430099009201935A
:1012EC00C80059004B0D9946009A019B6D0AD90F05
:1012FC00530F2B439A46009B7F0DDA0094464A46C7
:10130C00B046BA1A8E4200D1B0E0002A00DC78E078
:10131C004946002900D1E9E0C9498F4200D195E145
:10132C000125382A16DC8021534609040B439A46C2
:10133C001F2A00DDE7E1202155468B1A61469D40AE
:10134C00D1400D43614699404B1E99415346D340C1
:10135C000D43E41A451BA84280414042241A230243
:10136C0000D40FE16402640A002C00D139E12000A2
:10137C00FFF734FF0300083B20212800CA1AD04095
:10138C009C4002009D4022439F4200DD73E1D81B2C
:10139C000130091A2C008D40C4406B1E9D41130076
:1013AC00C2408B402543002714001D436B0709D016
:1013BC000F232B40042B05D02B1DAB42AD416D42AE
:1013CC0064191D00230200D42DE19D4A0137974278
:1013DC0000D1D3E046469B49ED0821404A072A43F9
:1013EC007C054D022D0B640D24052C43F60734436C
:1013FC001000210003B0F0BCBB46B246A946A04683
:10140C00F0BD002A00D184E04A46D21B002F00D048
:10141C006DE12500054300D127E1561E012A00D1BC
:10142C003BE2874DAA4200D16AE20125382E12DC3C
:10143C0032001F2A00DDF8E120262500B61A07002D
:10144C005346B040D440B540D740461EB0411B1B5C
:10145C009A463D4305436246551BAC459241534663
:10146C0052420E004F4688469C1A78E7002A00DC50
:10147C008EE04946002975D161465346194300D187
:10148C00F6E0511E012A00D191E16D4DAA4200D126
:10149C00DCE00125382914DC0A001F2A00DDA2E15A
:1014AC0020215346891A8B401D006346D3401D43AF
:1014BC0063468B4019004B1E99415346D3400D4354
:1014CC00E4182D188542804140422418230259D536
:1014DC005B4B01379F4251D001215A4B6A081C408B
:1014EC0029400A43E507154364085FE76146534604
:1014FC00194300D1BCE0511E012A00D164E1504DCA
:10150C00AA4200D16AE10125382900DD22E70A0050
:10151C000EE74D4A7D1C154200D0D0E025006246F6
:10152C00534605431A43002F00D037E1002D00D15C
:10153C00A8E1002A00D16AE16346C51A5346E21AB3
:10154C00A8429B415B42D31A1A0200D403E26346C1
:10155C001D1AAC459241534652421C1B0E00884644
:10156C00A41A23E736498F4270D00125382AA8DC0B
:10157C008021534609040B439A468EE73C00002514
:10158C00002231E707232B40002B00D010E793E01B
:10159C00002A74D04A46D21B002F00D1C7E028493C
:1015AC00894500D185E10125382A12DC8021090406
:1015BC000C431F2A00DDABE120212500891A07000E
:1015CC0088408D40D740411E8841D4403D4305435F
:1015DC00A2446544654592415242524414004F4620
:1015EC0074E72800FFF7FAFD030018331F2B00DC0B
:1015FC00C2E62A00083882409F4200DDA9E0DB1BCE
:10160C00581C1F2800DCACE115001F3BDD402028D6
:10161C0005D040231B1A9A40531E9A4115430723A9
:10162C0000272B40B0E7ED08054B62072A43E4087E
:10163C009F420FD02403250B7C05640DD4E6C046D5
:10164C00FF070000FFFF7FFFFE070000C0086207D6
:10165C000243E4081300234300D186E180252D03C7
:10166C0025432D03C34C2D0BBEE6604654460E009D
:10167C001700C508D8E7C04CFF1A144096E6BF4ABD
:10168C00791C11426BD122000243002F00D0DBE009
:10169C00002A00D12DE1624653461A4300D1B6E030
:1016AC006346C518854280415444404224182302A5
:1016BC0002D50F00B04B1C403A002800D8E7624618
:1016CC00851AA8429241534652429146E31A1A0097
:1016DC004B46D21A130091461A0254D44A464C4631
:1016EC002A4300D040E60026002400257CE6A14DCC
:1016FC00A94500D190E00125382A00DDABE6802514
:10170C002D042C4395E6110055462039CD40A946B1
:10171C00202A06D0402153468A1A934062461A4327
:10172C00944665466B1E9D414B461D4312E62100B7
:10173C00014300D1C4E0511E012A00D1FBE08D4DC4
:10174C00AA4200D1B5E00125382900DD41E70A00A5
:10175C002FE7894CFF1A14406207E4086AE7854AB0
:10176C00914200D1E3E06346C218824280412300DB
:10177C00404253441B18DD075C08072352081543ED
:10178C000F002B4000E763461D1AAC4592415346AF
:10179C0052421C1B0E008846A41AE5E5002D00D011
:1017AC0091E0002A38D180240026240356E76346B2
:1017BC00C518854280415444404224180127230215
:1017CC0000D4DFE6022787E66346C51AA8428041AB
:1017DC0053464042E41A0127241AC0E56207C008A8
:1017EC000243E40836E7110053462039CB409946B2
:1017FC00202A06D0402153468A1A934062461A4347
:10180C00944665466B1E9D414B461D4359E6620747
:10181C00C0080243E4080DE753465A076346D8084C
:10182C0053460E000243DC0814E715002600203D49
:10183C00EE40202A03D04025AA1A94402043421E91
:10184C0090410500354306E6002A7CD0624653469B
:10185C00C0081A4300D1FAE6620710438022E4085C
:10186C001203144208D0D908114205D16346D80896
:10187C0053460C005B071843420FC000C0085207C8
:10188C000243E7E6002A00D12DE76346D808534609
:10189C005A070E000243DC08CCE663461D1AAC4521
:1018AC009241534652421C1B0E008846A41A013723
:1018BC0055E56346D90853465A070A43DC08C9E67E
:1018CC0060465446D4E6C008002A00D1BFE6620741
:1018DC0010438022E40812031442CDD0DD081542D7
:1018EC00CAD16346D80853465B070E002C00184338
:1018FC00C2E76346D90853465A070A43DC0899E6FF
:10190C006346D80853465A070E000243DC08A1E68A
:10191C00110027002039CF40202A03D040218A1AF9
:10192C0094402043421E904105003D4351E60C007B
:10193C000025002258E560446045924154445242CF
:10194C000500A4183AE753465A076346D90853468C
:10195C000A43DC087EE61A001C002A4300D0ABE6E2
:10196C00C1E620210025091A19E500220025014CA9
:10197C003AE5C046FF070000FFFF7FFFFE070000AF
:10198C00F0B5DE46454657464E46E0B587B0009268
:10199C0001930B031B0B9B46CA0F4B0004008046A4
:1019AC005B0D029200D16AE1D44A934200D18CE1E2
:1019BC005946420FC9000A43802109041143C20051
:1019CC009046CF4A894692469A44002300240393BA
:1019DC00009E019F3B031B0B9B467B0030005B0D65
:1019EC00FD0F002B00D128E1C44A934200D177E1CE
:1019FC005946720FC9000A438021090411438B46D2
:101A0C00BF49F2008C4651466344CB1A9A460023D8
:101A1C00029E6E400F2C27D8BA49A40009598F4654
:101A2C00CB464246029E039B022B16D0032B00D1C1
:101A3C00A6E2012B00D0DFE0002200230024904618
:101A4C001B052343F60733434046190007B0F0BC8F
:101A5C00BB46B246A946A046F0BD002200249046E3
:101A6C00A64BEDE72E00DFE7CB4500D2D4E100D149
:101A7C00CFE101235B429C46444648460027E244A2
:101A8C005B46150E1B021D43190C2B04120200950C
:101A9C001D0C914602910395FEF7B4FB02006A43BC
:101AAC000B04210C804619438A4209D9009D01235D
:101ABC00AC465B4261449C46E0448D4200D8FBE15D
:101ACC00881A0299FEF79EFB039A240442430904E8
:101ADC00240C03000C43A24206D90099013B8C460E
:101AEC006444A14200D8E1E1A01A424612041A4310
:101AFC0093464B4659461B0C1D0004930B04494658
:101B0C000904090C0C001B0C5C43120C6B4388463B
:101B1C0051436A43250CAC465B186344994203D984
:101B2C00802149028C466244190C24041B04240CA9
:101B3C008A181C19904202D316D1A74214D25B46C4
:101B4C00009D013B4F4405934F459B41AC465B4286
:101B5C006344C018854200D3A1E1824200D9F6E16A
:101B6C0000D1F1E1059B9B463C1BA742BF41009D68
:101B7C00801A7F42C01B854200D1D0E10299FEF74A
:101B8C0041FB039A0B044243210C070019438A4280
:101B9C0000D978E1881A0299FEF734FB039A2404E1
:101BAC0042430904240C03000C43A24200D95DE11A
:101BBC004146A41A3A041A43049D13041B0C5943BE
:101BCC0047466B439C46100C47430B0CBC44634488
:101BDC0068439F4203D980256D02AC4660441F0CBC
:101BEC0009041B04090C3F185B18BC4200D202E12B
:101BFC0000D1FDE001231A43434B5344002B00DC7E
:101C0C00AEE0510700D098E15946C90106D55946B6
:101C1C003E4B194080238B46DB0053443C498B429E
:101C2C0000DD1AE75946D208490711435A465B05AD
:101C3C0054028846240B5B0D02E75A46009B1A435C
:101C4C0000D17EE05B46002B00D100E15846FFF747
:101C5C00C5FA020003000B3A1D27009EBA1A1900A0
:101C6C005846D64008398840320002439346009AC1
:101C7C008A40284953448A469A440023C8E65B4666
:101C8C000343994656D05B46002B00D1CDE0584615
:101C9C00FFF7A4FA0B235B429C4602008444664681
:101CAC001D239B1B260011005846DE400839884036
:101CBC0033000343994623008B409846164B00246F
:101CCC009B1A9A460023039382E65A460243914696
:101CDC002AD100229A46022390460824039377E6E1
:101CEC005A46009B1A430D4B9C46E244002A17D1DE
:101CFC0002231C4300239B46023389E6FF070000A6
:101D0C0001FCFFFF0CEE0008FF030000FFFFFFFECD
:101D1C00FE070000F30300000DFCFFFF01F8FFFFBE
:101D2C00032332001C4373E69A460323D9460C2442
:101D3C0003934DE6002398469A46013304240393FB
:101D4C0046E601231C4300239B46013360E6002337
:101D5C00802498460026924B240371E601225242BD
:101D6C000121C91A382900DD66E61F2900DCABE029
:101D7C001F204042C31A5846D8400300202904D0E3
:101D8C0058468849514488400243511E8A411A439F
:101D9C00072319000024114013420CD00F231340C9
:101DAC00042B00D1F9E0111D91429B410A005B42CA
:101DBC0059075B021C0BD2080A43904600233FE6EE
:101DCC0080244B462403234209D05B46234206D190
:101DDC001C4324032E009046714B240B30E68024C8
:101DEC004B4624031C432403029E6D4B240B27E615
:101DFC00002B00D100E70098511E844664448442B5
:101E0C0000D284E0BC4200D2AEE000D1C1E00A00B6
:101E1C00F0E6424500D92CE64B46DC075808434611
:101E2C005B081C434346DF072AE6FFF7D7F9152367
:101E3C009C4684440200634620321C2B00DC2EE7B7
:101E4C0023000838834099460023984636E7FFF76D
:101E5C00C5F902000300153220331C2A00DCFBE616
:101E6C0000990838814000228B4602E70099013B1B
:101E7C008C466444A14200D99AE6A24200D897E667
:101E8C00831E644494E6AC466144013F8D4200D904
:101E9C0080E68A4200D87DE6871E61447AE6854258
:101EAC0000D05FE6B94500D95CE656E6A24200D800
:101EBC001AE6831E644417E68A4200D800E6AC4654
:101ECC00831E98466144FBE5374814005044824019
:101EDC005B4617008340CC407A1E974123433B431B
:101EEC001A005B46CB40510709D00F211140042941
:101EFC0005D0111D9142924152429B180A001902C1
:101F0C0000D455E7002201230024904698E50A00EE
:101F1C00BC4200D06EE64B4500D06BE66CE6234B22
:101F2C00234A5344924500DA18E7012149420A1D1D
:101F3C008A42894149428B4466E60F2111400429AB
:101F4C0000D161E61100F2E7BC4200D80AE6022398
:101F5C005B429C4600994F444F459B41E3448C4661
:101F6C005B426344C018FFE54946009D4800484564
:101F7C008941AC46494261448146023A6418C7E73C
:101F8C0080245B4624031C4324039046044B240BFF
:101F9C0056E59945E8D30A00BDE7002308E7C0469B
:101FAC00FF0700003E0400001E040000FF030000B9
:101FBC0002FCFFFFF0B55746DE464E464546E0B5FF
:101FCC000D000400E80F83460903D80F090B824665
:101FDC0019488C461F0369005E00490D3F0B760DB6
:101FEC00814218D086420FD00120B1420DD1BC45A0
:101FFC000BD1944209D1D3451CD0002905D16046A0
:10200C002043431E984100E00120F0BCBB46B24681
:10201C00A946A046F0BD01208E42F6D16146394357
:10202C000F0017432743F0D15B465246981A431EC4
:10203C009841EAE70020E8E7FF070000F0B55746B3
:10204C004E464546DE46E0B50D000F03390B83B016
:10205C000400804601915800E90F314F400D8C4629
:10206C006E00190382469146760D090BD80FBE42BD
:10207C001FD0BA450FD0002E2FD15546019E3443A8
:10208C00002D27D10A433AD0002C45D100281AD173
:10209C000120404217E011433BD1002E02D1019F99
:1020AC002743F3D0844509D16346002BF0D060461A
:1020BC0009E0019F27432CD1B24524D0634602206E
:1020CC00013B1840013803B0F0BCBB46B246A946F0
:1020DC00A046F0BD002CD9D0E4E75446002CEDD03E
:1020EC008445EBD15645E9DCDEDB019B8B42E5D820
:1020FC00DAD1C845E2D80020C845E4D2D4E70020A4
:10210C00002CE0D0DAE7114303D18445D6D100206E
:10211C00D9E702204042D6E78445E6D0CEE7C04658
:10212C00FF070000F0B557464E464546DE46E0B583
:10213C000D000F0304008046E80F390B844683B072
:10214C005800304F400D01911E03690082469146A4
:10215C00490D360BD80FB94220D0BA450FD0002903
:10216C002BD101990C435146002937D1324338D039
:10217C00002C44D1002819D10120404216E016430E
:10218C0013D1002902D1019F2743F3D0844520D0DD
:10219C0063460220013B1840013807E0019F2743AA
:1021AC0003D18A45F4D116431FD0022003B0F0BCF2
:1021BC00BB46B246A946A046F0BD5446002CE7D01B
:1021CC008445E5D15145E3DC03DB019BB342DFD809
:1021DC000FD06346002BCFD06046E7E7002CC9D068
:1021EC00D4E70020002CE1D0D2E78445D0D10020E8
:1021FC00DCE7C845CCD80020C845D7D2E9E78445F0
:10220C00E3D0C5E7FF070000F0B5C6461E03360B4A
:10221C00B0460D4E0C034D005F0000B5240B6D0D48
:10222C007F0DB5420BD0084900208F4204D14646A1
:10223C0016433000431E984180BCB846F0BD0443A1
:10224C000120002CF8D1EEE7FF07000003008218F4
:10225C00934200D1704719700133F9E770B500262D
:10226C000C4C0D4D641BA410A64209D100260CF099
:10227C0071FB0A4C0A4D641BA410A64205D170BD1B
:10228C00B300EB5898470136EEE7B300EB5898478C
:10229C000136F2E7C0F00008C0F00008C4F00008F6
:1022AC00C0F000087047704770B505000C1E10D0C8
:1022BC00043C2368002B00DAE418280000F0E0F856
:1022CC001D4A1368002B05D163601460280000F0D0
:1022DC00DFF870BDA34208D9206821188B42F3D1D6
:1022EC0019685B6809182160EEE71A005B68002B1F
:1022FC0001D0A342F9D911685018A0420BD1206823
:10230C000918501811608342E0D118685B684118B5
:10231C0011605360DAE7A04202D90C232B60D5E799
:10232C00206821188B4203D119685B680918216059
:10233C0063605460CAE7C046C002002070B50F4EFF
:10234C000D0031680400002902D100F0A9F83060BA
:10235C002900200000F0A4F8431C03D101256D4294
:10236C00280070BD0323C51C9D43A842F8D0291A30
:10237C00200000F095F80130F2D1EFE7BC0200200C
:10238C00F7B50322CB1C9343083305001F000C2B1D
:10239C0034D20C27B94233D8280000F071F8374EEC
:1023AC0033681C00002C2FD139002800FFF7C6FF22
:1023BC000400431C5FD134680094009B002B4AD16D
:1023CC00002C52D023682800E3180099019300F0E8
:1023DC0067F8019B834248D123682800FF1A390013
:1023EC00FFF7ACFF013040D02368DB192360336862
:1023FC005A68002A33D1009B336019E0002BC9DAEC
:10240C000C232B600020FEBD2168C91B20D40B2996
:10241C000AD9E2192760A34204D1326063681160C3
:10242C00536005E05A60F9E76268A3420ED132604E
:10243C00280000F02DF8200007220B30231D9043BC
:10244C00C21A9842DFD01B1AA350DCE75A60EFE7A0
:10245C0023006468A6E7009C63680093ADE71A004C
:10246C005B68A342FBD10023DAE70C2328002B6026
:10247C0000F00EF8C6E70760DAE7C046C00200209D
:10248C0010B50248FFF70EFF10BDC046B802002081
:10249C0010B50248FFF707FF10BDC046B802002078
:1024AC00002370B5064D040008002B600AF08EF86E
:1024BC00431C03D12B68002B00D0236070BDC04699
:1024CC00B402002080B500AF06F008FC00F00DF857
:1024DC0000F07CF800F034FE00F076F900F0D4F84F
:1024EC000AF064FE0AF06EFEFCE790B595B000AF02
:1024FC0014243B1918003C231A000021FFF7A6FEF8
:10250C003B1D180010231A000021FFF79FFE8023AB
:10251C009B00180006F092FA3B1922221A603B1914
:10252C0080225200DA603B198022D203DA6121004A
:10253C007B1800221A617B1840225A617B180222F8
:10254C001A627B1802225A627B1800229A627B184C
:10255C000822DA627B18802292021A637B18C0224E
:10256C00D2045A637B18802292059A637B18180058
:10257C0004F08EFC031E01D000F019F83B1D07225D
:10258C001A603B1D02225A603B1D00229A603B1DC3
:10259C000022DA603B1D0221180005F03FF9031EF2
:1025AC0001D000F004F8C046BD4615B090BD80B512
:1025BC0000AF72B6C046C046FDE780B582B000AF32
:1025CC0078603960C046BD4602B080BD90B589B018
:1025DC0000AF0C243B19180014231A000021FFF73C
:1025EC0035FE274B5A6B264B01210A435A63244B69
:1025FC005B6B01221340BB60BB68214B5A6B204BB9
:10260C0002210A435A631E4B5B6B022213407B6010
:10261C007B68A023DB0501220221180006F0C6F915
:10262C00184B01220221180006F0C0F93B190222B6
:10263C001A603B1901225A603B1900229A603B191F
:10264C000322DA603A19A023DB051100180005F00B
:10265C0071FF21007B1802221A607B1811225A602C
:10266C007B1800229A607B180122DA607B18054ADD
:10267C001900100005F05EFFC046BD4609B090BDC4
:10268C00001002400004005080B500AF1B4B1C4AE8
:10269C001A601A4B1B4A5A60184B00229A60174B4F
:1026AC000122DA60154B00221A61144B00225A6188
:1026BC00124B00229A61114B0022DA610F4B00225F
:1026CC001A620E4B180006F0BDFB031E01D0FFF77B
:1026DC006EFF0A4B0021180007F056FA031E01D0BA
:1026EC00FFF765FF054B0021180007F0C1FA031E28
:1026FC0001D0FFF75CFFC046BD4680BDC402002080
:10270C00005800406621C10090B59DB000AF7860C4
:10271C005C23FB18180014231A000021FFF796FD08
:10272C0010243B1918004C231A000021FFF78EFDD2
:10273C007B681B68224A93423ED13B1940221A60A7
:10274C003B190022DA613B19180005F091FA031EBF
:10275C0001D0FFF72CFF1B4B5A6B1A4B01210A437C
:10276C005A63184B5B6B01221340FB60FB685C21C6
:10277C007B18C0221A607B1812225A607B18012227
:10278C009A607B180322DA607B1808221A617A1887
:10279C00A023DB051100180005F0CCFE094BDA6B09
:1027AC00084B8021C9030A43DA63064BDA6B80239A
:1027BC00DB031340BB60BB68C046BD461DB090BD7B
:1027CC00005800400010024080B500AF1B4B1C4A63
:1027DC001A601A4B822252005A60184B00229A60DF
:1027EC00164BE022D200DA60144B00221A61134B14
:1027FC0000225A61114B802292009A610F4B0822E1
:10280C00DA610E4B00221A620C4B00225A620B4BFF
:10281C0000229A62094B0722DA62084B00221A63E3
:10282C00064B08225A63054B180007F091FA031E59
:10283C0001D0FFF7BCFEC046BD4680BD180300208A
:10284C000038004090B58BB000AF786014243B1971
:10285C00180014231A000021FFF7F8FC7B681B6892
:10286C00264A934246D1264BDA6B254B8021C9016F
:10287C000A43DA63224BDA6B8023DB0113403B61A2
:10288C003B691F4B5A6B1E4B01210A435A631C4B6D
:10289C005B6B01221340FB60FB683B1909221A6039
:1028AC003B1902225A603B1900229A603B19032201
:1028BC00DA603B1900221A613A19A023DB051100DA
:1028CC00180005F037FE21007B1810221A607B18C7
:1028DC0002225A607B1800229A607B180322DA606D
:1028EC007B1801221A617A18A023DB05110018004D
:1028FC0005F020FEC046BD460BB090BD0038004030
:10290C000010024080B500AFC046FDE780B500AFB7
:10291C00C046FDE780B500AFC046BD4680BD80B562
:10292C0000AFC046BD4680BD80B500AF06F040FA92
:10293C0006F0CDF9C046BD4680BD000080B500AFA5
:10294C00034B180000F08CFFC046BD4680BDC0464E
:10295C007C03002080B582B000AF114B1A6C104B79
:10296C0001210A431A640E4B1B6C012213407B603D
:10297C007B680B4BDA6B0A4B802149050A43DA63FF
:10298C00074BDA6B80235B0513403B603B68C0232D
:10299C00DB00180006F028FAC046BD4602B080BD28
:1029AC000010024090B599B000AF786014243B1928
:1029BC0018004C231A000021FFF748FC7B681B68A9
:1029CC00254A934243D13B19802252041A603B1989
:1029DC0000225A643B19180005F04AF9031E01D075
:1029EC00FFF7E5FD1D4BDA6B1C4B802189010A4377
:1029FC00DA631A4BDA6B80239B0113403B613B6912
:102A0C00164BDA6B80235B05134016D1134BDA6B34
:102A1C00124B802149050A43DA63104BDA6B802391
:102A2C005B051340FB60FB6805F0FAFF0B4BDA6BA0
:102A3C000A4B0B490A40DA6301E005F0F1FF002272
:102A4C000221082006F0FAF8082006F017F9C04613
:102A5C00BD4619B090BDC046005C0040001002405D
:102A6C00FFFFFFEF80B582B000AF78607A68B723C4
:102A7C009B00D2587B68A72189008C4663441900BF
:102A8C00100007F077FCC046BD4602B080BD90B583
:102A9C0083B000AF78600A00FB1C1A707A68B72309
:102AAC009B00D458FB1C1A787868B4235900130087
:102ABC009B009B18DB00C3185B181A68FB1C1B7867
:102ACC001900200007F0C0FCC046BD4603B090BD05
:102ADC0080B582B000AF78600A00FB1C1A707A686F
:102AEC00B7239B00D058FB1C1A78796813009B0005
:102AFC009B18DB00CB1828331A68FB1C1B781900B9
:102B0C0007F08AFDC046BD4602B080BD80B582B0DC
:102B1C0000AF78607A68B7239B00D358180007F091
:102B2C00F5FEC046BD4602B080BD80B584B000AF96
:102B3C0078600F23FB1801221A707B68DB79022B5B
:102B4C0001D0FFF734FD7A68B7239B00D2580F23CE
:102B5C00FB181B781900100007F095FE7A68B72354
:102B6C009B00D358180007F02FFEC046BD4604B09A
:102B7C0080BD000080B582B000AF78607A68B72362
:102B8C009B00D358180007F08FFE7B68DB7A002B74
:102B9C0005D0054B1A69044B06210A431A61C0463D
:102BAC00BD4602B080BDC04600ED00E080B582B0ED
:102BBC0000AF78607B68DB7A002B07D0094B1A6971
:102BCC00084B06218A431A6100F07CFA7A68B72315
:102BDC009B00D358180007F07FFEC046BD4602B0DC
:102BEC0080BDC04600ED00E080B582B000AF7860DB
:102BFC00344AB7239B007968D1507A68B2239B0082
:102C0C003049D1502F4B304A1A602E4B08221A7182
:102C1C002C4B08225A712B4B0222DA71294B0222BF
:102C2C005A72284B00229A72264B0022DA72254BDC
:102C3C0000221A73234B00225A73224B00229A73E0
:102C4C00204B0022DA731F4B00221A741D4B180004
:102C5C0000F0D8FC031E01D0FFF7A9FC7A68B22360
:102C6C009B00D05818230022002102F06DF97A68DD
:102C7C00B2239B00D05858230022802102F064F923
:102C8C007A68B2239B00D058C0230022812102F025
:102C9C005BF97A68B2239B00D05888235B00002232
:102CAC00012102F051F97A68B2239B00D05880239D
:102CBC005B000022822102F047F900231800BD4678
:102CCC0002B080BD7C030020005C0040F0B585B0F4
:102CDC0000AF78600F217B1800221A700E26BB19EA
:102CEC0000221A707A68B2239B00D3580D007C180E
:102CFC00180000F08FFD03002370BC197B191B78A2
:102D0C00180000F0E6F903002370BB191B781800BB
:102D1C00BD4605B0F0BDF0B585B000AF78600C00D5
:102D2C0010001900FB1C221C1A70BB1C021C1A7010
:102D3C003B000A1C1A800F26BB1900221A700E25A4
:102D4C007B1900221A707A68B2239B00D058BC19E8
:102D5C00BB1C1D783B001A88FB1C19782B0000F05B
:102D6C00BFFE030023700E257C19BB191B781800BD
:102D7C0000F0AFF9030023707B191B781800BD46D7
:102D8C0005B0F0BDF0B585B000AF78600A00FB1C53
:102D9C001A700F217B1800221A700E26BB19002204
:102DAC001A707A68B2239B00D2580D007C18FB1C59
:102DBC001B781900100000F004FF03002370BC19ED
:102DCC007B191B78180000F084F903002370BB19E1
:102DDC001B781800BD4605B0F0BDF0B585B000AF4E
:102DEC0078600A00FB1C1A700F217B1800221A70E5
:102DFC000E26BB1900221A707A68B2239B00D25897
:102E0C000D007C18FB1C1B781900100000F0BAFF99
:102E1C0003002370BC197B191B78180000F059F9BA
:102E2C0003002370BB191B781800BD4605B0F0BD1C
:102E3C00F0B585B000AF78600A00FB1C1A700F214A
:102E4C007B1800221A700E26BB1900221A707A68A1
:102E5C00B2239B00D2580D007C18FB1C1B78190068
:102E6C00100000F0EDFF03002370BC197B191B78D8
:102E7C00180000F02EF903002370BB191B78180002
:102E8C00BD4605B0F0BD80B584B000AF78600A00D7
:102E9C00FB1C1A707A68B2239B00D358FB60FB1C96
:102EAC001B785BB2002B0CDAFB1C1B787F221A40C0
:102EBC00F96813009B009B18DB00CB1816331B78AA
:102ECC000DE0FB1C1B787F221A40F868AB235900DD
:102EDC0013009B009B18DB00C3185B181B781800B1
:102EEC00BD4604B080BDF0B585B000AF78600A0077
:102EFC00FB1C1A700F217B1800221A700E26BB19AE
:102F0C0000221A707A68B2239B00D2580D007C18EC
:102F1C00FB1C1B781900100000F0B8FD0300237097
:102F2C00BC197B191B78180000F0D3F80300237030
:102F3C00BB191B781800BD4605B0F0BDF0B587B0C5
:102F4C0000AFF8607A603B600B23FB180A1C1A7008
:102F5C001726BB1900221A7016257B1900221A702D
:102F6C00FA68B2239B00D058BC193D687A680B23D1
:102F7C00FB1819782B0000F0C8FE030023701625EF
:102F8C007C19BB191B78180000F0A3F80300237000
:102F9C007B191B781800BD4607B0F0BDF0B587B0A3
:102FAC0000AFF8607A603B600B23FB180A1C1A70A8
:102FBC001726BB1900221A7016257B1900221A70CD
:102FCC00FA68B2239B00D058BC193D687A680B2371
:102FDC00FB1819782B0000F047FE03002370162510
:102FEC007C19BB191B78180000F073F803002370D0
:102FFC007B191B781800BD4607B0F0BD80B582B0B8
:10300C0000AF78600A00FB1C1A707A68B2239B0030
:10301C00D258FB1C1B781900100000F05DFE030059
:10302C001800BD4602B080BD80B582B000AF78609C
:10303C000A00FB1C1A70FB1C1B78002B02D0012B06
:10304C0014D025E07B68DB7A002B07D000F03AF82F
:10305C00114B1A69104B06218A431A617A68B723FF
:10306C009B00D358180007F037FC11E07A68B7239F
:10307C009B00D358180007F017FC7B68DB7A002BF9
:10308C0005D0054B1A69044B06210A431A61C04648
:10309C00C046BD4602B080BD00ED00E080B582B0F8
:1030AC0000AF7860024B1800BD4602B080BDC04630
:1030BC005C06002080B582B000AF7860C046BD468B
:1030CC0002B080BD80B500AFFFF70FFAC046BD4619
:1030DC0080BD80B584B000AF0200FB1D1A700F23B9
:1030EC00FB1800221A70FB1D1B78032B17D01BDC5E
:1030FC00022B0FD018DC002B02D0012B05D013E0D3
:10310C000F23FB1800221A7013E00F23FB18032265
:10311C001A700EE00F23FB1801221A7009E00F231E
:10312C00FB1803221A7004E00F23FB1803221A70F9
:10313C00C0460F23FB181B781800BD4604B080BD99
:10314C0080B500AF1449154B0022180007F03DF86C
:10315C00031E01D0FFF72BFA114A104B1100180077
:10316C0007F06DF8031E01D0FFF721FA0D4A0B4B47
:10317C001100180009F048F9031E01D0FFF717FAE7
:10318C00064B180007F099F8031E01D0FFF70FFA51
:10319C00C046BD4680BDC046500000207C080020C3
:1031AC00D0000020A400002080B582B000AF020047
:1031BC003960FB1D1A703B6812221A80024B1800F2
:1031CC00BD4602B080BDC0467000002080B582B004
:1031DC0000AF02003960FB1D1A703B6804221A8094
:1031EC00024B1800BD4602B080BDC04684000020D2
:1031FC0080B582B000AF02003960FB1D1A70FB1D58
:10320C001B78002B06D13A680849094B180008F0C6
:10321C006CFB05E03A680549054B180008F065FBA6
:10322C00024B1800BD4602B080BDC046580B0020B2
:10323C0078E9000880B582B000AF02003960FB1D50
:10324C001A703A680449054B180008F04EFB024B03
:10325C001800BD4602B080BD580B002084E9000860
:10326C0080B582B000AF02003960FB1D1A703B685C
:10327C001A221A8000F04CF8024B1800BD4602B01E
:10328C0080BDC0468800002080B582B000AF02002F
:10329C003960FB1D1A70FB1D1B78002B06D13A6898
:1032AC000849094B180008F020FB05E03A6805496D
:1032BC00054B180008F019FB024B1800BD4602B074
:1032CC0080BDC046580B00208CE9000880B582B048
:1032DC0000AF02003960FB1D1A70FB1D1B78002B20
:1032EC0006D13A680849094B180008F0FEFA05E0C7
:1032FC003A680549054B180008F0F7FA024B18001C
:10330C00BD4602B080BDC046580B002098E90008AD
:10331C0080B584B000AF104B1B68FB600F4B1B6873
:10332C00BB600F4B1B687B60FA687B68D318FB6033
:10333C00FB68002B0BD00B49FB680822180000F02F
:10334C0015F80949BB680422180000F00FF8C046B4
:10335C00BD4604B080BDC0469075FF1F9475FF1F1D
:10336C009875FF1F8A0000209A00002080B586B057
:10337C0000AFF860B960FB1D1A7017217B18002292
:10338C001A707B1800221A702FE0FB681B0F092B98
:10339C000DD8FB681B0FDAB21723FB181B785B00E8
:1033AC001900BB685B183032D2B21A700CE0FB68A3
:1033BC001B0FDAB21723FB181B785B001900BB68D4
:1033CC005B183732D2B21A70FB681B01FB601721F5
:1033DC007B181B785B000133BA68D31800221A7073
:1033EC007B181A787B1801321A701723FA18FB1DF8
:1033FC0012781B789A42C8D3C046C046BD4606B068
:10340C0080BD000080B500AF0749084B00221800B2
:10341C0009F014F8064A054B1100180009F031F8B0
:10342C0000231800BD4680BD581500207C080020E4
:10343C00580D002080B500AF00231800BD4680BD9C
:10344C0080B582B000AF39601100FB1D021C1A70F0
:10345C003B1D0A1C1A80FB1D1B78232B04D89A00D9
:10346C00044BD3181B689F46C04600231800BD466A
:10347C0002B080BD4CEE000880B582B000AF786021
:10348C0039607A680A4B1100180008F0FAFF084BF3
:10349C00180009F061F83B681B689AB27B68110050
:1034AC00180009F0DDFE00231800BD4602B080BDF7
:1034BC007C080020B0B584B000AF78600A00BB1C5B
:1034CC001A800F23FB1800221A70114AAF239B009D
:1034DC00D358BB60BA6885239B00D358002B01D00E
:1034EC00012310E0BB1C1A887968094B180008F0FE
:1034FC00A5FF0F257C19064B180008F0DFFF030011
:10350C0023707B191B781800BD4604B0B0BDC046B3
:10351C007C08002080B586B000AFF860B960FB1D58
:10352C001A7017217B1800221A707B181B785BB25B
:10353C001800BD4606B080BD80B584B000AF786081
:10354C000A00BB1C1A800A23FB6002E0FB68013BEB
:10355C00FB60FB68002BF9D1BB1C1B88DB00064A07
:10356C00944663445B681B0C9BB29B059B0D9BB202
:10357C001800BD4604B080BD0098004080B584B0F2
:10358C0000AF78600A00BB1C1A800A23FB6002E0C3
:10359C00FB68013BFB60FB68002BF9D1BB1C1B8853
:1035AC00DB00064A944663441B681B0C9BB29B05CC
:1035BC009B0D9BB21800BD4604B080BD0098004026
:1035CC0080B584B000AF78600A00BB1C1A800A2357
:1035DC00FB6002E0FB68013BFB60FB68002BF9D150
:1035EC00BB1C1B88DB00064A944663445B681B0CBF
:1035FC009BB29B059B0D9BB21800BD4604B080BDD1
:10360C000098004090B587B002AF78607B68002BC3
:10361C0001D10123F4E07B681B687B4A934204D000
:10362C007A4B87211800FEF7C8FF7B68784A9B5CB1
:10363C00DBB2002B08D17A68A5239B000021D15462
:10364C007B681800FFF7AEF97B68714A0321995427
:10365C007B681B68180001F0FDFC0F23FB1800228F
:10366C001A7049E00F203B181A78796813009B00F8
:10367C009B18DB00CB18153301221A703B181A78F3
:10368C00796813009B009B18DB00CB1814333A1895
:10369C0012781A703B181A78796813009B009B18E3
:1036AC00DB00CB18173300221A703B181A78796894
:1036BC0013009B009B18DB00CB18243300221A60EC
:1036CC003B181A78796813009B009B18DB00CB1809
:1036DC00283300221A603B181B7879685A1C130097
:1036EC009B009B18DB00CB18043300221A603B189C
:1036FC001A783B1801321A707B681B790F217A18E3
:10370C0012789A42AED37B1800221A7056E00F241E
:10371C003B191A7878685623FF33190013009B0065
:10372C009B18DB00C3185B1800221A703B191A781F
:10373C007868AA23590013009B009B18DB00C31860
:10374C005B183A1912781A703B191A787868582352
:10375C00FF33190013009B009B18DB00C3185B1888
:10376C0000221A703B191A787868B223590013009A
:10377C009B009B18DB00C3185B1800221A603B19D6
:10378C001A787868B423590013009B009B18DB004F
:10379C00C3185B1800221A603B191A787868B62394
:1037AC00590013009B009B18DB00C3185B18002208
:1037BC001A603B191A783B1901321A707B681B7915
:1037CC000F22BA1812789A42A1D37B6818687B68CA
:1037DC006A46197C117059689A68DB6801F073FCB1
:1037EC007B6800225A747B68094A012199547B68D2
:1037FC001B7B012B03D17B68180001F0F5FB002328
:10380C001800BD4605B090BD005C0040A8E900085A
:10381C009502000080B582B000AF78607A68A5236D
:10382C009B00D35C012B01D1022314E07A68A52301
:10383C009B000121D1547B681B68180001F0F6FB3A
:10384C007B681B68180003F000FA7A68A5239B00BC
:10385C000021D15400231800BD4602B080BD0000E9
:10386C0080B584B000AF78607B681B68180003F0EB
:10387C00FCF90300FB607C4AA023D35804221340BC
:10388C0000D1EDE0FA6880231B02134004D07B6862
:10389C00180000F035FBE4E0FA688023DB001340ED
:1038AC0011D07B681B685A6C7B681B686F490A4097
:1038BC005A647B681800FFF738F97B680021180000
:1038CC0000F0E4F8CDE0FA688023DB01134008D067
:1038DC007B681B685A6C7B681B6865490A405A6494
:1038EC00BFE0FA6880239B01134008D07B681B68FB
:1038FC005A6C7B681B685F490A405A64B1E0FA68ED
:10390C0080235B0113402CD07B681B681A6C7B688E
:10391C001B6804218A431A647B681B681A6C7B68D9
:10392C001B6808218A431A647A68B3239B00D35C12
:10393C00012B09D17A68B3239B000021D1547B68F9
:10394C0000211800FFF770FB7B681800FFF72EF9B9
:10395C007B681B685A6C7B681B6847490A405A6431
:10396C007FE0FA6880231B0113401CD07B681B6826
:10397C001A6C7B681B6808210A431A647B681B68F5
:10398C005A6C7B681B683D490A405A647B681B680B
:10399C001A6C7B681B6804210A431A647B68180044
:1039AC00FFF7E8F85DE0FB688022134038D07B68B5
:1039BC001B685A6C7B681B6831490A405A647A68E8
:1039CC00B3239B00D35C002B25D17B681B681A6C3E
:1039DC007B681B6804210A431A647B681B681A6C99
:1039EC007B681B6808210A431A647A68B3239B001E
:1039FC000121D1547B681B685B6D9B083C221340F2
:103A0C0019007A68B4239B00D1507B6801211800FF
:103A1C00FFF70AFB25E07B681800FFF7ABF820E006
:103A2C00FA6880239B0013400CD07B681B685A6C8F
:103A3C007B681B6813490A405A647B681800FFF7BF
:103A4C0065F80EE0FA6880235B00134009D07B68B0
:103A5C001B685A6C7B681B680B490A405A6400E06F
:103A6C00C046BD4604B080BD00000140FFFB000015
:103A7C00FFBF0000FFDF0000FFEF0000FFF70000BA
:103A8C007FFF0000FFFD0000FFFE000080B582B04C
:103A9C0000AF78600A00FB1C1A707A68A5239B00A3
:103AAC00D35C012B01D1022316E07A68A5239B007D
:103ABC000121D1547B68FA1C12785A747B681A68FD
:103ACC00FB1C1B781900100003F0ACF87A68A523D6
:103ADC009B000021D15400231800BD4602B080BDCC
:103AEC0090B585B000AF78600C0010001900FB1C7D
:103AFC00221C1A703B00021C1A80BB1C0A1C1A7078
:103B0C000B23FB1800221A70FB1C1B785BB2002BDA
:103B1C0010DAFB1C1B7807221A4013009B009B1821
:103B2C00DB0010337A68D3180433FB60FB68012286
:103B3C005A7010E0FB1C1B7807221A4013009B00E4
:103B4C009B18DB005133FF337A68D3180433FB60C6
:103B5C00FB6800225A70FB1C1B7807221340DAB258
:103B6C00FB681A703B001A88FB681A61FB68BA1C68
:103B7C001278DA70BB1C1B78022B02D1FB68002276
:103B8C001A717A68A5239B00D35C012B01D1022307
:103B9C0013E07A68A5239B000121D1547B681B6834
:103BAC00FA681100180001F0B9FA7A68A5239B0095
:103BBC000021D1540B23FB181B781800BD4605B00F
:103BCC0090BD80B584B000AF78600A00FB1C1A7001
:103BDC00FB1C1B785BB2002B10DAFB1C1B7807223A
:103BEC001A4013009B009B18DB0010337A68D31823
:103BFC000433FB60FB6801225A7010E0FB1C1B783D
:103C0C0007221A4013009B009B18DB005133FF3333
:103C1C007A68D3180433FB60FB6800225A70FB1CD3
:103C2C001B7807221340DAB2FB681A707A68A52356
:103C3C009B00D35C012B01D1022311E07A68A523F0
:103C4C009B000121D1547B681B68FA681100180095
:103C5C0001F098FD7A68A5239B000021D154002324
:103C6C001800BD4604B080BD80B586B000AFF860CA
:103C7C007A603B600B203B180A1C1A7001007B1801
:103C8C001B7807221A4013009B009B18DB00513352
:103C9C00FF33FA68D31804337B617B697A685A6105
:103CAC007B693A689A617B690022DA617B69002240
:103CBC005A707B181B7807221340DAB27B691A7092
:103CCC00FB681B687A691100180001F0C1FE002323
:103CDC001800BD4606B080BD80B582B000AF7860DC
:103CEC000A00FB1C1A70FB1C1B7807221A40786810
:103CFC00B823590013009B009B18DB00C3185B18FA
:103D0C001B681800BD4602B080BD80B586B000AF00
:103D1C00F8607A603B600B203B180A1C1A703B1849
:103D2C001B7807221A4013009B009B18DB001033F2
:103D3C00FA68D31804337B617B697A685A617B69B2
:103D4C003A689A617B692422012199547B693A680B
:103D5C001A627B690022DA617B6901225A703B1876
:103D6C001B7807221340DAB27B691A70FB681B6858
:103D7C007A691100180001F06BFE00231800BD4693
:103D8C0006B080BD80B584B000AF78600A00FB1C23
:103D9C001A70FB1C1B78072213407A681279934225
:103DAC0001D9012348E0FB1C1B785BB2002B10DA15
:103DBC00FB1C1B7807221A4013009B009B18DB008E
:103DCC0010337A68D3180433FB60FB6801225A70F5
:103DDC000EE0FB1C1A7813009B009B18DB00513380
:103DEC00FF337A68D3180433FB60FB6800225A70E7
:103DFC00FB6801229A70FB1C1B7807221340DAB275
:103E0C00FB681A707A68A5239B00D35C012B01D147
:103E1C00022311E07A68A5239B000121D1547B6811
:103E2C001B68FA681100180002F028FE7A68A523B6
:103E3C009B000021D15400231800BD4604B080BD66
:103E4C0080B584B000AF78600A00FB1C1A70FB1CB4
:103E5C001B780F2213407A681279934201D90123FF
:103E6C004AE0FB1C1B785BB2002B10DAFB1C1B78A6
:103E7C0007221A4013009B009B18DB0010337A6852
:103E8C00D3180433FB60FB6801225A7010E0FB1C52
:103E9C001B7807221A4013009B009B18DB00513340
:103EAC00FF337A68D3180433FB60FB6800225A7026
:103EBC00FB6800229A70FB1C1B7807221340DAB2B5
:103ECC00FB681A707A68A5239B00D35C012B01D187
:103EDC00022311E07A68A5239B000121D1547B6851
:103EEC001B68FA681100180002F00AFE7A68A52314
:103EFC009B000021D15400231800BD4604B080BDA6
:103F0C00B0B58EB000AF786055E37B681B685A6C17
:103F1C0022203B181A803B181B88DAB221243B194B
:103F2C000F210A401A703B191B78002B00D02BE193
:103F3C003B181B881022134040D17B681B681B6800
:103F4C00C54A1340BB607B681B68BA6880210902B4
:103F5C000A431A607B6814337B637B6B1B78DB0032
:103F6C00BE4A944663441B681B0C9B059A0D7B6BE5
:103F7C00DA617B6B5A697B6BDB69D2187B6B5A619C
:103F8C007B6800211800FEF7A3FD7B685B7CDBB22D
:103F9C00002B00D10FE37B6B9B69002B00D00AE355
:103FAC007B685B7CDBB2802252421343DAB27B68C3
:103FBC001B68DA647B6800225A74FCE27B68553318
:103FCC00FF337B637B681B681A6832217B181A806D
:103FDC007B181A8880231B01134029D07B681A6830
:103FEC007B6B1B7819001000FFF7A6FA03001A0070
:103FFC007B6BDA617B6818687B68A7229200991842
:10400C007B6BDA887B6BDB699BB202F0B1FE7B6861
:10401C001B681B68924A1340FB607B681B68FA683C
:10402C0080210A431A607B681800FEF71BFDC2E270
:10403C003223FB1800229B5E002B00DBBBE27B686B
:10404C001B681B68864A1340FB627B681B68FA6A14
:10405C0080210A431A607B681A687B6B1B781900F5
:10406C001000FFF769FA03001A007B6BDA617B6BB7
:10407C00DB69002B1AD07B6B5B69002B16D07B683D
:10408C0018687B6B59697B6BDA887B6BDB699BB23D
:10409C0002F06EFE7B6B5A697B6BDB69D2187B6B13
:1040AC005A617B6800211800FEF7F1FC7B681B68E5
:1040BC001A6832217B181A807B181A8880231B01FE
:1040CC00134000D077E27B181A88C0239B011A405A
:1040DC00C0239B019A4200D16DE2604B5A685F4B42
:1040EC00920192095A607B6B1B693E2B16D97B6B34
:1040FC001B695B097B617B6B1B691F22134002D11F
:10410C007B69013B7B61554B5A687B699B061A4363
:10411C00524B802109060A435A601EE07B6B1B69D7
:10412C00002B07D14D4B5A684C4B802109060A4392
:10413C005A6012E07B6B1B695B087B617B6B1B69B4
:10414C000122134002D07B6901337B61434B5968D8
:10415C007B699A06414B0A435A607B681B681B6853
:10416C00404A13403B613B698022520153403B6102
:10417C003B698022920153403B617B681B683A6922
:10418C0039490A431A6016E27B681B681A00212120
:10419C007B181B789B00D3181A6832203B181A80A6
:1041AC003B1800229B5E002B00DBE0E07B681B6869
:1041BC001A007B181B789B00D3181B68284A1340E5
:1041CC00FB617B681B681A0008007B181B789B003E
:1041DC00D318FA6980210A431A603B181A78130025
:1041EC009B009B18DB005133FF337A68D3180433E0
:1041FC007B637B6B1B7B002B1CD17B681A687B6BF6
:10420C001B7824257C1919001000FFF795F9030081
:10421C0023802C003B191B88002B00D17FE07B688E
:10422C0018687B6B59697B6BDA883B191B8802F029
:10423C009FFD74E07B6BDB78022B17D12423FC18D9
:10424C003223FB181A88796B7B68180000F0C8F9C8
:10425C000300238063E0C0460F8FFF0700980040E7
:10426C008F0FFF078FBFFF07808000007B681B68E4
:10427C001A007B6B1B789B00D3181B68D44A134025
:10428C00BB617B681B681A007B6B1B789B00D31887
:10429C00BA69D0490A431A607B681B681A007B6BA9
:1042AC001B789B00D3181A688023DB0113401BD0AA
:1042BC007B681A687B6B1B7824257C19190010000D
:1042CC00FFF75CF9030023802C003B191B88002BA3
:1042DC0025D07B6818687B6B59697B6B1A893B19F5
:1042EC001B8802F045FD1AE07B681A687B6B1B7813
:1042FC0024257C1919001000FFF762F903002380B4
:10430C002C003B191B88002B09D07B6818687B6B31
:10431C0059697B6B5A893B191B8802F029FD7B6B11
:10432C00DA6924217B181B88D2187B6BDA617B6BD2
:10433C005A697B181B88D2187B6B5A617B6B9B6903
:10434C00002B05D07B181A887B6B1B699A4207D20D
:10435C007B6B1A787B6811001800FEF798FB06E05F
:10436C007B681B687A6B1100180001F071FB32201E
:10437C003B181B888022134000D11CE121217B18A3
:10438C001A7813009B009B18DB0010337A68D31843
:10439C0004337B637B681B681A007B181B789B00BB
:1043AC00D3181B688C4A1340BB627B681B681A00CD
:1043BC007B181B789B00D318BA6A802109020A4328
:1043CC001A607B6BDB78012B00D0A3E07B6B0022A7
:1043DC009A617B6B1B7B002B00D193E03B181B88F5
:1043EC004022134047D07B6B5B78002B21D17B6B39
:1043FC001B78DB00794A944663441A687B6B1B7804
:10440C00DB0076498C466344920192091A607B6BFF
:10441C001B78DB00714A944663441A687B6B1B78EB
:10442C00DB006E498C466344802109060A431A60FE
:10443C0068E07B6B5B78012B64D17B6B1B78DB00BA
:10444C00664A944663441A687B6B1B78DB006349AD
:10445C008C4663441204120C1A607B6B1B78DB00D5
:10446C005E4A9A187B6B1B78DB005C498C46634474
:10447C0012681A6046E07B6B5B78002B21D17B6B5A
:10448C001B78DB00554A944663445A687B6B1B7857
:10449C00DB0052498C466344920192095A607B6B53
:1044AC001B78DB004D4A944663445A687B6B1B783F
:1044BC00DB004A498C466344802109060A435A6052
:1044CC0020E07B6B5B78012B1CD17B6B1B78DB00BA
:1044DC00424A944663445A687B6B1B78DB003F4925
:1044EC008C4663441204120C5A607B6B1B78DB0005
:1044FC003A4A9A187B6B1B78DB0038498C4663442C
:10450C0052685A607B6B1A787B6811001800FEF7B2
:10451C00DFFA50E03223FB181A8880235B0013402B
:10452C0041D17B6B1B78DB002C4A944663441B689F
:10453C001B0C9AB226217B189205920D1A807B6B6C
:10454C009A697B181B889A4207D97B6B9A697B18EE
:10455C001B88D21A7B6B9A6102E07B6B00229A61FA
:10456C007B6B9B69002B07D17B6B1A787B681100E6
:10457C001800FEF7ADFA1EE07B6B5A6926217B18FA
:10458C001B88D2187B6B5A617B6BDA697B181B8892
:10459C00D2187B6BDA617B681B687A6B1100180090
:1045AC0001F056FA07E03223FB181A88796B7B6806
:1045BC00180000F0FFF87B681B685A6C80231B0204
:1045CC00134000D0A1E400231800BD460EB0B0BDCE
:1045DC008F8FFF07C08000000F8FFF0700980040EF
:1045EC00B0B58AB000AFF860B960BB1D1A80BB1DB6
:1045FC001A888023DB01134067D0FB681A68BB68FC
:10460C001B781E257C1919001000FEF7B7FF03005C
:10461C002380BB689A697B191B889A4207D3BB68B5
:10462C009A697B191B88D21ABB689A6102E0BB6835
:10463C0000229A61BB689B69002B1AD1FB681B682E
:10464C001A00BB681B789B00D3181B68554A134093
:10465C00BB61BB69802292015340BB61FB681B6844
:10466C001A00BB681B789B00D318BA694E490A43E1
:10467C001A60BB1D1B884022134015D0FB681B68B9
:10468C001A00BB681B789B00D3181B68474A134061
:10469C007B61FB681B681A00BB681B789B00D318F6
:1046AC007A6943490A431A601E243B191B88002B64
:1046BC0000D170E0FB681868BB685969BB681A893F
:1046CC003B191B8802F054FB65E0FB681A68BB6859
:1046DC001B781E257C1919001000FEF771FF0300D2
:1046EC002380BB689A697B191B889A4207D3BB68E5
:1046FC009A697B191B88D21ABB689A6102E0BB6865
:10470C0000229A61BB689B69002B1AD1FB681B685D
:10471C001A00BB681B789B00D3181B68214A1340F6
:10472C007B627B6A8022920153407B62FB681B6830
:10473C001A00BB681B789B00D3187A6A1A490A4383
:10474C001A60BB1D1B884022134015D1FB681B68E7
:10475C001A00BB681B789B00D3181B68134A1340C4
:10476C003B62FB681B681A00BB681B789B00D31864
:10477C003A6A0F490A431A601E243B191B88002B06
:10478C0009D0FB681868BB685969BB685A893B1922
:10479C001B8802F0EDFA1E23FB181B881800BD467F
:1047AC000AB0B0BD8FBFFF07808000008F8FFF075E
:1047BC00C0800000B0B58EB000AFF860B960BB1D12
:1047CC001A80BB1D1B884022134000D1C3E1FB683B
:1047DC001A68BB681B781E257C1919001000FEF79F
:1047EC00CDFE03002380BB689A697B191B889A4213
:1047FC0007D9BB689A697B191B88D21ABB689A6166
:10480C0002E0BB6800229A61BB689B69002B00D058
:10481C00B2E0BB685B78002B21D1BB681B78DB0056
:10482C00DA4A944663441A68BB681B78DB00D749A4
:10483C008C466344920192091A60BB681B78DB00BA
:10484C00D24A944663441A68BB681B78DB00CF4994
:10485C008C466344802109060A431A6020E0BB6839
:10486C005B78012B1CD1BB681B78DB00C74A9446D4
:10487C0063441A68BB681B78DB00C4498C466344EC
:10488C001204120C1A60BB681B78DB00BF4A9A1822
:10489C00BB681B78DB00BD498C46634412681A6008
:1048AC00BB685B78002B21D1BB681B78DB00B74A57
:1048BC00944663445A68BB681B78DB00B3498C464A
:1048CC006344920192095A60BB681B78DB00AF4AC3
:1048DC00944663445A68BB681B78DB00AB498C4632
:1048EC006344802109060A435A6020E0BB685B7868
:1048FC00012B1CD1BB681B78DB00A44A9446634493
:10490C005A68BB681B78DB00A0498C4663441204D0
:10491C00120C5A60BB681B78DB009C4A9A18BB6867
:10492C001B78DB0099498C46634452685A60BB681B
:10493C001A78FB6811001800FEF7CAF8BB1D1A881C
:10494C008023DB01134000D1D5E2FB681B681A0001
:10495C00BB681B789B00D3181B688D4A13407B6384
:10496C00FB681B681A00BB681B789B00D3187A6B1A
:10497C0088490A431A60BEE2BB1D1A888023DB01FA
:10498C00134015D0FB681B681A00BB681B789B0092
:10499C00D3181B687E4A1340BB62FB681B681A0065
:1049AC00BB681B789B00D318BA6A7A490A431A6011
:1049BC00BB6824229B5C012B00D09CE2BB685A692B
:1049CC001E217B181B88D218BB685A61BB68DA6938
:1049DC007B181B88D218BB68DA61BB681A6ABB6883
:1049EC001B699A4209D3BB681B697B62BB681A6A54
:1049FC007B6AD21ABB681A6216E0BB681B6A002B72
:104A0C0008D11E23FB181B887B62BB682422002163
:104A1C00995409E0BB68242200219954BB681B6A95
:104A2C007B62BB6800221A62BB685B78002B62D188
:104A3C00BB681B78DB00554A944663441A68BB6814
:104A4C001B78DB0051498C466344920192091A6031
:104A5C007B6A3E2B1ED97B6A5B09FB627B6A1F2239
:104A6C00134002D1FB6A013BFB62BB681B78DB0085
:104A7C00464A944663441A68FB6A9B061A43BB6811
:104A8C001B78DB0041498C466344802109060A43AC
:104A9C001A6055E07B6A002B11D1BB681B78DB00D8
:104AAC003A4A944663441A68BB681B78DB00374962
:104ABC008C466344802109060A431A6040E07B6AF5
:104ACC005B08FB627B6A0122134002D0FB6A013354
:104ADC00FB62BB681B78DB002C4A94466344196864
:104AEC00FB6A9A06BB681B78DB0028488446634443
:104AFC000A431A6024E0BB685B78012B20D1BB68A9
:104B0C001B78DB00214A944663441A68BB681B7807
:104B1C00DB001E498C4663441204120C1A60BB68FD
:104B2C001B78DB00194A9446634419687B6A1A04A3
:104B3C00BB681B78DB001548844663440A431A6043
:104B4C00FB681868BB685969BB681A897B6A9BB299
:104B5C0002F098F8CFE1FB681A68BB681B781E2539
:104B6C007C1919001000FEF72BFD03002380BB6895
:104B7C009A697B191B889A420ED3BB689A697B1978
:104B8C001B88D21ABB689A6109E0C04600980040A5
:104B9C008F8FFF0780C00000BB6800229A61BB6842
:104BAC009B69002B00D0B2E0BB685B78002B21D155
:104BBC00BB681B78DB00B54A944663441A68BB6833
:104BCC001B78DB00B1498C466344920192091A6050
:104BDC00BB681B78DB00AD4A944663441A68BB681B
:104BEC001B78DB00A9498C466344802109060A43E3
:104BFC001A6020E0BB685B78012B1CD1BB681B786A
:104C0C00DB00A24A944663441A68BB681B78DB003D
:104C1C009E498C4663441204120C1A60BB681B78C4
:104C2C00DB009A4A9A18BB681B78DB0097498C46C4
:104C3C00634412681A60BB685B78002B21D1BB6897
:104C4C001B78DB00914A944663445A68BB681B7816
:104C5C00DB008E498C466344920192095A60BB6812
:104C6C001B78DB00894A944663445A68BB681B78FE
:104C7C00DB0086498C466344802109060A435A604E
:104C8C0020E0BB685B78012B1CD1BB681B78DB0078
:104C9C007E4A944663445A68BB681B78DB007B49A8
:104CAC008C4663441204120C5A60BB681B78DB0000
:104CBC00764A9A18BB681B78DB0074498C466344AF
:104CCC0052685A60BB681A78FB6811001800FDF72F
:104CDC00FFFEBB1D1A888023DB01134000D00AE1C4
:104CEC00FB681B681A00BB681B789B00D3181B68F9
:104CFC00674A13403B62FB681B681A00BB681B7851
:104D0C009B00D3183A6A63490A431A60F3E0BB1D4F
:104D1C001A888023DB01134015D1FB681B681A002D
:104D2C00BB681B789B00D3181B68594A13407B61E6
:104D3C00FB681B681A00BB681B789B00D3187A6948
:104D4C0054490A431A60BB6824229B5C012B00D097
:104D5C00D1E0BB685A691E217B181B88D218BB682E
:104D6C005A61BB68DA697B181B88D218BB68DA6198
:104D7C00BB681A6ABB681B699A4209D3BB681B697A
:104D8C007B62BB681A6A7B6AD21ABB681A6216E02D
:104D9C00BB681B6A002B08D11E23FB181B887B6287
:104DAC00BB6824220021995409E0BB681B6A7B6212
:104DBC00BB6800221A62BB68242200219954BB688C
:104DCC005B78002B68D1BB681B78DB002F4A9446BC
:104DDC0063445A68BB681B78DB002C498C466344DF
:104DEC00920192095A607B6A3E2B1ED97B6A5B0941
:104DFC00BB617B6A1F22134002D1BB69013BBB61C3
:104E0C00BB681B78DB00214A944663445A68BB6933
:104E1C009B061A43BB681B78DB001C498C46634419
:104E2C00802109060A435A605BE07B6A002B11D192
:104E3C00BB681B78DB00154A944663445A68BB6810
:104E4C001B78DB0011498C466344802109060A4318
:104E5C005A6046E07B6A5B08BB617B6A01221340A7
:104E6C0002D0BB690133BB61BB681B78DB00074A0E
:104E7C00944663445968BB699A06BB681B78DB008F
:104E8C000248844663440A435A602AE00098004072
:104E9C008F8FFF0780C00000BB685B78012B20D18F
:104EAC00BB681B78DB00254A944663445A68BB6890
:104EBC001B78DB0021498C4663441204120C5A60A7
:104ECC00BB681B78DB001D4A9446634459687B6AB7
:104EDC001A04BB681B78DB001848844663440A43F9
:104EEC005A60FB681868BB685969BB685A897B6A49
:104EFC009BB201F0C7FEFB681B681A00BB681B78ED
:104F0C009B00D3181B680E4A13403B633B6B10226B
:104F1C0053403B633B6B202253403B63FB681B6855
:104F2C001A00BB681B789B00D3183A6B05490A43DF
:104F3C001A6000231800BD460EB0B0BD00980040AA
:104F4C00BF8FFF078080000090B587B000AFF8607E
:104F5C00080011007B600A243B19021C1A800823EC
:104F6C00FB180A1C1A8021007B181B888022134016
:104F7C009BB2002B0DD07B181B8807221A40130004
:104F8C009B009B18DB001033FA68D31804337B6149
:104F9C000CE00A23FB181A8813009B009B18DB00FB
:104FAC005133FF33FA68D31804337B610823FB18A1
:104FBC001B88002B07D17B6900221A737B689AB27D
:104FCC007B69DA800BE07B6901221A737B689AB2E9
:104FDC007B691A817B681B0C9AB27B695A8100230E
:104FEC001800BD4607B090BD80B584B000AF7860A6
:104FFC007B681B68FB607A68B5239B000121D1504C
:10500C007A68B3239B000021D154FB685B6D0122AD
:10501C001A43FB685A65FB685B6D02221A43FB68F6
:10502C005A6500231800BD4604B080BD80B584B01D
:10503C0000AF78607B6800225A64054BFB607B688C
:10504C00FA681A6400231800BD4604B080BDC0463F
:10505C0080BF000080B584B000AF7860064BFB6069
:10506C007B681B6CFA68D2431A407B681A64002375
:10507C001800BD4604B080BD80BF000080B582B072
:10508C0000AF78600A00FB1C1A70FB1C1B78002B0D
:10509C0006D17B681B6C5B005A087B681A640DE0B8
:1050AC00FB1C1B78012B07D17B681B6C8022120622
:1050BC001A437B681A6401E0012300E00023180006
:1050CC00BD4602B080BD84B0B0B584B000AF78608E
:1050DC00042020240019C0190160426083607B68A1
:1050EC0001221A647B681B6C012293431A007B68B3
:1050FC001A640F257C197B6800211800FFF7BEFF8E
:10510C00030023707B6800225A647B191B781800FB
:10511C00BD4604B0B0BC08BC04B0184780B59EB006
:10512C0000AF786039607723FB1800221A707A6818
:10513C003B681B789B00D3181B68DC4A13403B6709
:10514C003B68DB78032B0ED019DC022B1CD016DC51
:10515C00002B02D0012B0CD011E03B6F802292006F
:10516C0013433B6711E03B6FC022D20013433B67F4
:10517C000BE03B6F8022D20013433B6705E07723A3
:10518C00FB1801221A7000E0C0467A683B681B7855
:10519C009B00D3183A6FC6490A431A607A683B6879
:1051AC001B789B00D3181B68C24A13403A681278CC
:1051BC001343BB667A683B681B789B00D318BA6EA6
:1051CC00BB490A431A603B681B7B002B00D055E19E
:1051DC003B685B78002B6ED03B681B78DB00B64AD3
:1051EC00944663441A683B681B78DB00B2498C46D2
:1051FC006344120C12041A603B681B78DB00AE4A45
:10520C009446634419683B68DB889B089BB29A0000
:10521C003B681B78DB00A848844663440A431A6049
:10522C007A683B681B789B00D3181B68BB61BB6911
:10523C004022134011D07A683B681B789B00D3182E
:10524C001B689C4A13407B617A683B681B789B0007
:10525C00D3187A6999490A431A603B68DB78012BA9
:10526C0016D07A683B681B789B00D3181B68944A4D
:10527C001340FB60FB6820225340FB607A683B685C
:10528C001B789B00D318FA6889490A431A6061E2BB
:10529C007A683B681B789B00D3181B68884A1340BC
:1052AC003B617A683B681B789B00D3183A6980494C
:1052BC000A431A604EE23B681B78DB007E4A944638
:1052CC0063445A683B681B78DB007B498C4663441B
:1052DC00120C12045A603B681B78DB00764A944629
:1052EC00634459683B68DB889B089BB29A003B6817
:1052FC001B78DB007048844663440A435A603B6861
:10530C001B78DB006C4A944663445A683B681B78F4
:10531C00DB0069498C466344920192095A603B68F0
:10532C001B693E2B20D93B681B695B09FB663B68FC
:10533C001B691F22134002D1FB6E013BFB663B68CD
:10534C001B78DB005C4A944663445A68FB6E9B06F0
:10535C001A433B681B78DB0057498C466344802119
:10536C0009060A435A6032E03B681B69002B11D1D5
:10537C003B681B78DB00504A944663445A683B6890
:10538C001B78DB004C498C466344802109060A4398
:10539C005A601CE03B681B695B08FB663B681B6939
:1053AC000122134002D0FB6E0133FB663B681B7875
:1053BC00DB00414A944663445968FB6E9A063B688D
:1053CC001B78DB003C48844663440A435A607A6885
:1053DC003B681B789B00D3181B68BB62BA6A80239E
:1053EC00DB01134011D07A683B681B789B00D31803
:1053FC001B68304A13407B627A683B681B789B00C1
:10540C00D3187A6A2F490A431A603B681B78002B21
:10541C001CD17A683B681B789B00D3181B682A4AFE
:10542C001340FB61FB69802252015340FB61FB6915
:10543C00802292015340FB617A683B681B789B0089
:10544C00D318FA691A490A431A6083E17A683B68EF
:10545C001B789B00D3181B681B4A13403B623B6AAA
:10546C008022920153403B627A683B681B789B0018
:10547C00D3183A6A0E490A431A606BE13B68DB7831
:10548C00022B25D17A683B681B789B00D3181B68CC
:10549C00084A13403B667A683B681B789B00D3181C
:1054AC003A6E0A490A431A6024E0C0468F89FF0706
:1054BC00808000008F8FFF0700980040C0800000A4
:1054CC00BF8FFF0780C000008FBFFF0780810000E7
:1054DC007A683B681B789B00D3181B68A14A134061
:1054EC007B667A683B681B789B00D3187A6E9E4962
:1054FC000A431A603B681B78DB009C4A9446634461
:10550C001A683B681B78DB0098498C466344120C84
:10551C0012041A603B681B78DB00944A944663447F
:10552C0019683B681B899B089BB29A003B681B78E7
:10553C00DB008E48844663440A431A603B681B7840
:10554C00DB008A4A944663445A683B681B78DB004C
:10555C0086498C466344120C12045A603B681B78D3
:10556C00DB00824A9446634459683B685B899B081C
:10557C009BB29A003B681B78DB007C4884466344F2
:10558C000A435A603B685B78002B69D17A683B68A8
:10559C001B789B00D3181B683B643A6C8023DB019F
:1055AC00134011D07A683B681B789B00D3181B689A
:1055BC006F4A1340FB637A683B681B789B00D318D7
:1055CC00FA6B6C490A431A607A683B681B789B003B
:1055DC00D3181B68BB63BB6B4022134011D07A6895
:1055EC003B681B789B00D3181B68614A13407B6394
:1055FC007A683B681B789B00D3187A6B5E490A4328
:10560C001A607A683B681B789B00D3181B685B4A4E
:10561C0013403B633B6B8022520153403B633B6B1B
:10562C008022920153403B637A683B681B789B0055
:10563C00D3183A6B4C490A431A607A683B681B785A
:10564C009B00D3181B684E4A1340FB627A683B6878
:10565C001B789B00D318FA6A43490A431A6079E015
:10566C007A683B681B789B00D3181B68FB65FA6D46
:10567C008023DB01134011D07A683B681B789B00B8
:10568C00D3181B683A4A1340BB657A683B681B7891
:10569C009B00D318BA6D37490A431A607A683B6885
:1056AC001B789B00D3181B687B657B6D40221340D5
:1056BC0011D07A683B681B789B00D3181B682C4A66
:1056CC0013403B657A683B681B789B00D3183A6D96
:1056DC0029490A431A603B68DB78012B16D07A689B
:1056EC003B681B789B00D3181B68254A1340BB648E
:1056FC00BB6C20225340BB647A683B681B789B00D0
:10570C00D318BA6C18490A431A6011E07A683B68DE
:10571C001B789B00D3181B68194A1340FB647A68EA
:10572C003B681B789B00D318FA6C0F490A431A602C
:10573C007A683B681B789B00D3181B680F4A134090
:10574C007B647A683B681B789B00D3187A6C06499B
:10575C000A431A607723FB181B781800BD461EB04D
:10576C0080BDC0468F8EFF078080000000980040EF
:10577C008F8FFF0780C00000C08000008FBFFF0725
:10578C00BF8FFF0780B596B000AF786039603B687B
:10579C001B7B002B64D13B685B78002B2FD07A6885
:1057AC003B681B789B00D3181B683B613B6940220C
:1057BC00134011D07A683B681B789B00D3181B6888
:1057CC009D4A1340FB607A683B681B789B00D3189A
:1057DC00FA689A490A431A607A683B681B789B00FE
:1057EC00D3181B68964A1340BB607A683B681B78D9
:1057FC009B00D318BA6893490A431A6017E17A6878
:10580C003B681B789B00D3181B68FB61FA698023EB
:10581C00DB01134011D07A683B681B789B00D318CE
:10582C001B68854A1340BB617A683B681B789B00F8
:10583C00D318BA6984490A431A607A683B681B78A2
:10584C009B00D3181B68814A13407B617A683B68C4
:10585C001B789B00D3187A697A490A431A60E6E0F0
:10586C003B685B78002B71D17A683B681B789B0096
:10587C00D3181B68BB63BA6B8023DB01134011D0B8
:10588C007A683B681B789B00D3181B686A4A1340E4
:10589C007B637A683B681B789B00D3187A6B6A49E8
:1058AC000A431A607A683B681B789B00D3181B6804
:1058BC003B633B6B4022134011D07A683B681B78EA
:1058CC009B00D3181B685C4A1340FB627A683B68E8
:1058DC001B789B00D318FA6A58490A431A607A68F5
:1058EC003B681B789B00D3181B68534A1340BB6260
:1058FC007A683B681B789B00D318BA6A4F490A43F5
:10590C001A607A683B681B789B00D3181B684F4A57
:10591C0013407B627A683B681B789B00D3187A6AC9
:10592C0048490A431A607A683B681B789B00D31875
:10593C001B68434A13403B627A683B681B789B00A8
:10594C00D3183A6A3F490A431A6070E07A683B6898
:10595C001B789B00D3181B687B657A6D8023DB0159
:10596C00134011D07A683B681B789B00D3181B68D6
:10597C00314A13403B657A683B681B789B00D3180F
:10598C003A6D31490A431A607A683B681B789B0070
:10599C00D3181B68FB64FB6C4022134011D07A684F
:1059AC003B681B789B00D3181B68234A1340BB64CD
:1059BC007A683B681B789B00D318BA6C1F490A4362
:1059CC001A607A683B681B789B00D3181B681A4ACC
:1059DC0013407B647A683B681B789B00D3187A6C05
:1059EC0019490A431A607A683B681B789B00D318E4
:1059FC001B68134A13403B647A683B681B789B0016
:105A0C00D3183A6C0F490A431A607A683B681B78C2
:105A1C009B00D3181B680D4A1340FB637A683B68E4
:105A2C001B789B00D318FA6B06490A431A600023B3
:105A3C001800BD4616B080BD8F8FFF07C0800000D8
:105A4C00BF8FFF078080000080C000008FBFFF0762
:105A5C0090B597B000AF786039603B685B78012BEC
:105A6C0001D000F0BFFC3B689A693B681B699A4205
:105A7C0003D93B681B697B6502E03B689B697B65CE
:105A8C003B681B7B002B2BD13B6859693B68DA8840
:105A9C007B6D9BB2786801F0F5F83B681B78DB00F6
:105AAC00CE4A944663441A683B681B78DB00CB49AA
:105ABC008C4663441204120C1A603B681B78DB00A2
:105ACC00C64A9446634419687B6D1A043B681B787C
